:100000000C942A000C9447000C9447000C94470071
:100010000C9447000C9447000C9447000C94470044
:100020000C9447000C9447000C9447000C94470034
:100030000C9447000C9447000C9447000C94470024
:100040000C9447000C9447000C9447000C94470014
:100050000C94470011241FBECFE5D8E0DEBFCDBF12
:1000600010E0A0E6B0E0ECEBF6E302C005900D92E4
:10007000AE37B107D9F710E0AEE7B0E001C01D928E
:10008000A238B107E1F70E94D71A0C945C1B0C94BC
:100090000000EF92FF920F931F937B018C0120E0F1
:1000A00030E040E05FE40E94F50388238CF0C80153
:1000B000B70120E030E040E05FE40E94C1010E940F
:1000C00055049B01AC01205030404040504806C0D0
:1000D000C801B7010E9455049B01AC01B901CA01D6
:1000E0001F910F91FF90EF900895A0E0B0E0EBE733
:1000F000F0E00C94E01ADC012B01FA019C919230A3
:1001000008F439C1EB018881823008F433C194309E
:1001100069F4843009F02FC111969C91119789815F
:10012000981709F428C1A5E7B0E025C1843009F487
:1001300021C18230A9F4923009F01DC19A01AD01AC
:1001400088E0EA010990AE01E90109929E0181501F
:10015000C1F7E201898111969C918923818308C1AD
:10016000923009F407C112962D903C901397EB0141
:100170008A819B811496AD90BD90CD90DC901797AD
:10018000EC80FD800E811F819101281B390BB90184
:1001900037FF04C066277727621B730B6032710537
:1001A0000CF061C0121613066CF537014801062EDB
:1001B00004C096948794779467940A94D2F721E0C8
:1001C00030E040E050E004C0220F331F441F551FB1
:1001D0006A95D2F721503040404050402E213F21B7
:1001E00040235123211531054105510521F021E01E
:1001F00030E040E050E079018A01E628F72808293C
:1002000019293CC0232BD1F1260E371E350146019A
:10021000062E04C096948794779467940A94D2F734
:1002200021E030E040E050E004C0220F331F441FC3
:10023000551F6A95D2F721503040404050402A2146
:100240003B214C215D21211531054105510521F04E
:1002500021E030E040E050E059016A01A628B728CB
:10026000C828D9280BC0821593052CF01C01AA249C
:10027000BB24650103C0EE24FF24870111969C91E5
:10028000D20111968C91981709F445C0992339F041
:10029000A80197012A193B094C095D0906C0A6016E
:1002A00095012E193F09400B510B57FD08C01182D3
:1002B0003382228224833583468357831DC081E0A5
:1002C00081833382228288279927DC01821B930B4A
:1002D000A40BB50B84839583A683B7830DC0220F2F
:1002E000331F441F551F24833583468357838281E0
:1002F000938101979383828324813581468157813D
:10030000DA01C9010197A109B1098F5F9F4FAF4F72
:10031000BF4328F30BC0918333822282EA0CFB1C7B
:100320000C1D1D1DE482F5820683178383E0808304
:10033000248135814681578157FF1AC0C901AA27F8
:1003400097FDA095BA2F81709070A070B0705695EF
:10035000479537952795822B932BA42BB52B848318
:100360009583A683B7838281938101969383828349
:10037000DF0101C0D201CD01CDB7DEB7E2E10C94BF
:10038000FC1AA0E2B0E0E7ECF1E00C94EC1A69830F
:100390007A838B839C832D833E834F835887E9E048
:1003A000EE2EF12CEC0EFD1ECE010196B7010E943F
:1003B0007E058E010F5E1F4FCE010596B8010E948B
:1003C0007E058A8991E089278A8BC701B801AE0131
:1003D000475E5F4F0E9475000E94A904A096E6E068
:1003E0000C94081BA0E2B0E0E8EFF1E00C94EC1AEA
:1003F00069837A838B839C832D833E834F835887C5
:10040000F9E0EF2EF12CEC0EFD1ECE010196B701A6
:100410000E947E058E010F5E1F4FCE010596B8012A
:100420000E947E05C701B801AE01475E5F4F0E9482
:1004300075000E94A904A096E6E00C94081BA0E2B7
:10044000B0E0E5E2F2E00C94E01A69837A838B83F2
:100450009C832D833E834F835887CE010196BE0136
:10046000675F7F4F0E947E05CE010596BE016F5EDD
:100470007F4F0E947E059985923088F0898982306D
:10048000C8F0943019F4823051F404C0843029F457
:10049000923081F485E790E0C6C0923049F420E0C4
:1004A0009A858A89981321E02A87CE010996BBC0D4
:1004B000823049F420E09A858A89981321E02A8BBA
:1004C000CE014196B0C02D843E844F8458886D88FB
:1004D0007E888F88988CEE24FF248701AA24BB2471
:1004E000650140E050E060E070E0E0E0F0E0C10174
:1004F00081709070892BE9F0E60CF71C081D191D1E
:100500009A01AB012A0D3B1D4C1D5D1D80E090E062
:10051000A0E0B0E0E614F7040805190520F481E036
:1005200090E0A0E0B0E0BA01A901480F591F6A1F8E
:100530007B1FAA0CBB1CCC1CDD1C97FE08C081E0F5
:1005400090E0A0E0B0E0A82AB92ACA2ADB2A3196B6
:10055000E032F10549F0660C771C881C991C569412
:10056000479437942794C3CFFA85EA892B893C892D
:100570008B859C85280F391F2E5F3F4F17C0CA01FE
:1005800081709070892B61F016950795F794E79428
:1005900080E090E0A0E0B0E8E82AF92A0A2B1B2BC3
:1005A00076956795579547952F5F3F4F77FDE7CF36
:1005B0000CC0440F551F661F771F17FD4160EE0CDE
:1005C000FF1C001F111F21503040403090E05907A0
:1005D00090E0690790E4790760F32B8F3C8FDB0193
:1005E000CA018F779070A070B07080349105A1051A
:1005F000B10561F447FD0AC0E114F10401051105DC
:1006000029F0405C5F4F6F4F7F4F40781A8EFE1786
:1006100011F081E08A8F4D8F5E8F6F8F78A383E01A
:10062000898FCE0149960E94A904A096E2E10C941C
:10063000FC1AA8E1B0E0EFE1F3E00C94E81A69835A
:100640007A838B839C832D833E834F835887B9E0C5
:10065000EB2EF12CEC0EFD1ECE010196B7010E948F
:100660007E058E010F5E1F4FCE010596B8010E94D8
:100670007E052985223008F47EC03989323010F495
:10068000B8017CC08A859A8989278A87243011F02D
:10069000223031F4231709F06EC065E770E06EC0B8
:1006A000343039F41D861E861F86188A1C861B86E8
:1006B00004C0323021F484E08987B7015FC02B8504
:1006C0003C858B899C89281B390B3C872B87ED84C3
:1006D000FE840F851889AD88BE88CF88D88CEA142F
:1006E000FB040C051D0540F4EE0CFF1C001F111F40
:1006F000215030403C872B8720E030E040E050E044
:1007000080E090E0A0E0B0E460E070E0EA14FB0478
:100710000C051D0540F0282B392B4A2B5B2BEA18C2
:10072000FB080C091D09B695A79597958795EE0CC2
:10073000FF1C001F111F6F5F7F4F6F31710531F775
:10074000DA01C9018F779070A070B0708034910584
:10075000A105B10561F427FD0AC0E114F10401050A
:10076000110529F0205C3F4F4F4F5F4F20782D87B8
:100770003E874F87588BBE01675F7F4FCB010E943A
:10078000A9046896EAE00C94041BA8E1B0E0EBEC45
:10079000F3E00C94EC1A69837A838B839C832D831A
:1007A0003E834F83588789E0E82EF12CEC0EFD1E26
:1007B000CE010196B7010E947E058E010F5E1F4F8C
:1007C000CE010596B8010E947E058985823040F0F1
:1007D0008989823028F0C701B8010E94F60501C05E
:1007E0008FEF6896E6E00C94081BA8E1B0E0EBEF11
:1007F000F3E00C94EC1A69837A838B839C832D83BA
:100800003E834F83588789E0E82EF12CEC0EFD1EC5
:10081000CE010196B7010E947E058E010F5E1F4F2B
:10082000CE010596B8010E947E058985823040F090
:100830008989823028F0C701B8010E94F60501C0FD
:100840008FEF6896E6E00C94081BA8E1B0E0EBE2BD
:10085000F4E00C94EC1A69837A838B839C832D8358
:100860003E834F83588789E0E82EF12CEC0EFD1E65
:10087000CE010196B7010E947E058E010F5E1F4FCB
:10088000CE010596B8010E947E058985823040F030
:100890008989823028F0C701B8010E94F60501C09D
:1008A00081E06896E6E00C94081BACE0B0E0EBE574
:1008B000F4E00C94F01A69837A838B839C83CE01D5
:1008C0000196BE016B5F7F4F0E947E058D81823055
:1008D00061F1823050F1843021F48E81882351F10E
:1008E0002EC02F81388537FD20C06E812F31310514
:1008F0001CF06623F9F023C08EE190E0821B930B7D
:1009000029853A854B855C8504C056954795379572
:1009100027958A95D2F76623B1F05095409530958A
:1009200021953F4F4F4F5F4F0EC020E030E040E039
:1009300050E009C02FEF3FEF4FEF5FE704C020E02A
:1009400030E040E050E8B901CA012C96E2E00C9496
:100950000C1BDF92EF92FF920F931F93FC01E48038
:10096000F58006811781D1808081823048F480E053
:1009700090E0A0E1B0E0E82AF92A0A2B1B2BA5C0E1
:10098000843009F49FC0823021F4EE24FF248701D3
:1009900005C0E114F1040105110519F4E0E0F0E0EF
:1009A00096C0628173819FEF623879070CF05BC05B
:1009B00022E83FEF261B370B2A3131052CF020E0CF
:1009C00030E040E050E02AC0B801A701022E04C088
:1009D00076956795579547950A94D2F781E090E010
:1009E000A0E0B0E004C0880F991FAA1FBB1F2A9582
:1009F000D2F70197A109B1098E219F21A023B1232C
:100A00000097A105B10521F081E090E0A0E0B0E001
:100A10009A01AB01282B392B4A2B5B2BDA01C90138
:100A20008F779070A070B07080349105A105B105EA
:100A300039F427FF09C0205C3F4F4F4F5F4F04C080
:100A4000215C3F4F4F4F5F4FE0E0F0E02030A0E0EF
:100A50003A07A0E04A07A0E45A0710F0E1E0F0E00E
:100A600079018A0127C06038710564F5FB01E158FE
:100A7000FF4FD801C7018F779070A070B07080349D
:100A80009105A105B10539F4E7FE0DC080E490E0C1
:100A9000A0E0B0E004C08FE390E0A0E0B0E0E80E9A
:100AA000F91E0A1F1B1F17FF05C016950795F7941F
:100AB000E794319687E016950795F794E7948A9521
:100AC000D1F705C0EE24FF248701EFEFF0E06E2F91
:100AD000679566276795902F9F77D794DD24D794E5
:100AE0008E2F8695492F462B582F5D29B701CA01B5
:100AF0001F910F91FF90EF90DF900895FC01DB01B3
:100B0000408151812281622F6F7770E0221F22275E
:100B1000221F9381892F880F822B282F30E0991F65
:100B20009927991F11969C93119721153105A9F5C5
:100B3000411551056105710511F482E037C082E865
:100B40009FEF13969C938E9312979A01AB0167E0E7
:100B5000220F331F441F551F6A95D1F783E08C93F2
:100B60000DC0220F331F441F551F12968D919C916B
:100B70001397019713969C938E931297203080E0E1
:100B8000380780E0480780E4580758F314962D93FF
:100B90003D934D935C93179708952F3F310579F45A
:100BA000411551056105710519F484E08C93089590
:100BB00064FF03C081E08C9312C01C9210C02F57B9
:100BC000304013963C932E93129783E08C9387E0EA
:100BD000440F551F661F771F8A95D1F770641496CE
:100BE0004D935D936D937C93179708951F93DC014C
:100BF000FB019C91923008F447C08081823008F458
:100C000043C0943051F411961C91843099F5818140
:100C1000682F70E0611B71093FC0843021F0923071
:100C200031F48230B9F18181882389F12DC0119688
:100C30001C9111978230F1F081811817D9F4129626
:100C40002D913C911397828193818217930794F0A1
:100C500028173907BCF014968D919D910D90BC9189
:100C6000A02D2481358146815781281739074A07ED
:100C70005B0718F4112341F00AC082179307A407F9
:100C8000B50740F4112319F061E070E005C06FEF83
:100C90007FEF02C060E070E0CB011F910895DF9309
:100CA000CF93CDB7DEB70E948A0CCF91DF91089524
:100CB000DF93CF93CDB7DEB7A0970FB6F894DEBF22
:100CC0000FBECDBF0E94CD1A80E090E0A0EAB0E454
:100CD000898F9A8FAB8FBC8F698D7A8D8B8D9C8D10
:100CE00020E030E04AE755E40E941F02DC01CB011E
:100CF0008D8B9E8BAF8BB88F6D897E898F89988DF8
:100D000020E030E040E85FE30E94250488232CF4D3
:100D100081E090E09C8B8B8B3FC06D897E898F89B1
:100D2000988D20E03FEF4FE757E40E94C503181667
:100D30004CF5698D7A8D8B8D9C8D20E030E040E202
:100D400051E40E941F02DC01CB01BC01CD010E94D5
:100D50004900DC01CB019C8B8B8B0FC080E991E0BB
:100D60009A8B898B89899A890197F1F79A8B898B5C
:100D70008B899C8901979C8B8B8B8B899C89009795
:100D800069F714C06D897E898F89988D0E9449000A
:100D9000DC01CB019C8B8B8B8B899C89988B8F87FB
:100DA0008F8598890197F1F7988B8F8780E690E07F
:100DB0000E94261A80917E00882F90E00E944F1A90
:100DC00080E068E00E94721A83E690E00E94261A92
:100DD00080917F00882F90E00E944F1A81E060E0B0
:100DE0000E94721A86E690E00E94261A8091800086
:100DF000882F90E00E944F1A81E068E00E94721AEA
:100E000089E690E00E94261A80918100882F90E068
:100E10000E944F1A0E941B0C8E8F80E090E0AAEF78
:100E2000B3E48B879C87AD87BE876B857C858D857A
:100E30009E8520E030E04AE755E40E941F02DC0175
:100E4000CB018F839887A987BA876F817885898539
:100E50009A8520E030E040E85FE30E942504882383
:100E60002CF481E090E09E838D833FC06F81788574
:100E700089859A8520E03FEF4FE757E40E94C5033C
:100E800018164CF56B857C858D859E8520E030E0BD
:100E900040E251E40E941F02DC01CB01BC01CD0104
:100EA0000E944900DC01CB019E838D830FC080E945
:100EB00091E09C838B838B819C810197F1F79C83CC
:100EC0008B838D819E8101979E838D838D819E81F1
:100ED000009769F714C06F81788589859A850E948B
:100EE0004900DC01CB019E838D838D819E819A8395
:100EF000898389819A810197F1F79A8389838E8DFD
:100F0000282F30E038A32F8F8F8D98A1883091053E
:100F100039F12F8D38A12930310564F48F8D98A1D6
:100F20008130910509F43EC02F8D38A12430310560
:100F300089F03AC08F8D98A18E30910519F12F8DCF
:100F400038A120313105C1F08F8D98A18C309105E9
:100F500069F02AC080917E008F5F80937E0024C05C
:100F600080917F008F5F80937F001EC08091800002
:100F70008F5F8093800018C0809181008F5F809385
:100F8000810012C01D8E0AC08D8D882F90E0FC015B
:100F9000E258FF4F10828D8D8F5F8D8F8D8D843045
:100FA00098F302C00E94DF070E945806A0960FB671
:100FB000F894DEBF0FBECDBFCF91DF910895DF93D0
:100FC000CF93CDB7DEB76F970FB6F894DEBF0FBEE5
:100FD000CDBF0E9418098F8F1E8E0E94CD1A80E00F
:100FE00090E0A0EAB0E4898F9A8FAB8FBC8F698DB7
:100FF0007A8D8B8D9C8D20E030E04AE755E40E948D
:101000001F02DC01CB018D8B9E8BAF8BB88F6D895E
:101010007E898F89988D20E030E040E85FE30E9470
:10102000250488232CF481E090E09C8B8B8B3FC0BF
:101030006D897E898F89988D20E03FEF4FE757E4D7
:101040000E94C50318164CF5698D7A8D8B8D9C8D89
:1010500020E030E040E251E40E941F02DC01CB01BD
:10106000BC01CD010E944900DC01CB019C8B8B8B24
:101070000FC080E991E09A8B898B89899A890197C1
:10108000F1F79A8B898B8B899C8901979C8B8B8B31
:101090008B899C89009769F714C06D897E898F8937
:1010A000988D0E944900DC01CB019C8B8B8B8B8936
:1010B0009C89988B8F878F8598890197F1F7988BFA
:1010C0008F878CE690E00E94261A1D8E19C08D8DA8
:1010D000882F90E0FC01E258FF4F90818F8D981788
:1010E00061F48E8D813019F48CE20E94601481E0ED
:1010F0008E8F8D8D8F5B0E9460148D8D8F5F8D8F95
:101100008D8D843020F380E090E0AAE7B4E48B87F3
:101110009C87AD87BE876B857C858D859E8520E00D
:1011200030E04AE755E40E941F02DC01CB018F83C7
:101130009887A987BA876F81788589859A8520E005
:1011400030E040E85FE30E94250488232CF481E02E
:1011500090E09E838D833FC06F81788589859A85D5
:1011600020E03FEF4FE757E40E94C50318164CF507
:101170006B857C858D859E8520E030E040E251E4E2
:101180000E941F02DC01CB01BC01CD010E9449007D
:10119000DC01CB019E838D830FC080E991E09C83AD
:1011A0008B838B819C810197F1F79C838B838D814D
:1011B0009E8101979E838D838D819E81009769F723
:1011C00014C06F81788589859A850E944900DC0169
:1011D000CB019E838D838D819E819A8389838981B2
:1011E0009A810197F1F79A8389830E9458066F9636
:1011F0000FB6F894DEBF0FBECDBFCF91DF9108953B
:10120000DF93CF9300D00F92CDB7DEB789836A8387
:1012100099818A81891718F489818B8302C08A8118
:101220008B838B810F900F900F90CF91DF9108955A
:10123000DF93CF9300D0CDB7DEB780917E008A8355
:1012400081E089830FC08981882F90E0FC01E258FA
:10125000FF4F90818A81692F0E9400098A838981CA
:101260008F5F89838981843070F38A810F900F901A
:10127000CF91DF910895DF93CF93CDB7DEB7279756
:101280000FB6F894DEBF0FBECDBF89836A834B8350
:101290008B81813009F063C08981282F30E03F8342
:1012A0002E838E819F8181309105E9F02E813F81CF
:1012B0002230310561F18E819F810097E1F5AAE32B
:1012C000B0E0EAE3F0E08081482F8A81282F30E007
:1012D00081E090E0022E02C0880F991F0A94E2F785
:1012E000842B8C93A7C0A7E3B0E0E7E3F0E0808114
:1012F000482F8A81282F30E081E090E0022E02C042
:10130000880F991F0A94E2F7842B8C9393C0A4E36F
:10131000B0E0E4E3F0E08081482F8A81282F30E0BC
:1013200081E090E0022E02C0880F991F0A94E2F734
:10133000842B8C937FC0A1E3B0E0E1E3F0E08081F7
:10134000482F8A81282F30E081E090E0022E02C0F1
:10135000880F991F0A94E2F7842B8C936BC08B81C2
:10136000882309F067C08981282F30E03D832C83D2
:101370008C819D8181309105F9F02C813D81223055
:10138000310579F18C819D81009709F03FC0AAE376
:10139000B0E0EAE3F0E08081482F8A81282F30E036
:1013A00081E090E0022E02C0880F991F0A94E2F7B4
:1013B000809584238C933EC0A7E3B0E0E7E3F0E0A0
:1013C0008081482F8A81282F30E081E090E0022E32
:1013D00002C0880F991F0A94E2F7809584238C93AA
:1013E00029C0A4E3B0E0E4E3F0E08081482F8A81E3
:1013F000282F30E081E090E0022E02C0880F991F74
:101400000A94E2F7809584238C9314C0A1E3B0E0A2
:10141000E1E3F0E08081482F8A81282F30E081E0ED
:1014200090E0022E02C0880F991F0A94E2F780957F
:1014300084238C9327960FB6F894DEBF0FBECDBFE2
:10144000CF91DF910895DF93CF9300D000D0CDB737
:10145000DEB789836A838981282F30E03C832B8320
:101460008B819C818130910571F02B813C812230F0
:10147000310571F08B819C81009779F4EAE3F0E00B
:101480008A8180830EC0E7E3F0E08A81808309C00F
:10149000E4E3F0E08A81808304C0E1E3F0E08A8144
:1014A00080830F900F900F900F90CF91DF91089550
:1014B000DF93CF93CDB7DEB727970FB6F894DEBF93
:1014C0000FBECDBF89836A834B838B81813009F046
:1014D00063C08981282F30E03F832E838E819F81D6
:1014E00081309105E9F02E813F812230310561F193
:1014F0008E819F810097E1F5ABE3B0E0EBE3F0E094
:101500008081482F8A81282F30E081E090E0022EF0
:1015100002C0880F991F0A94E2F7842B8C93A7C00E
:10152000A8E3B0E0E8E3F0E08081482F8A81282F2B
:1015300030E081E090E0022E02C0880F991F0A94EB
:10154000E2F7842B8C9393C0A5E3B0E0E5E3F0E0F1
:101550008081482F8A81282F30E081E090E0022EA0
:1015600002C0880F991F0A94E2F7842B8C937FC0E6
:10157000A2E3B0E0E2E3F0E08081482F8A81282FE7
:1015800030E081E090E0022E02C0880F991F0A949B
:10159000E2F7842B8C936BC08B81882309F067C0A2
:1015A0008981282F30E03D832C838C819D8181307F
:1015B0009105F9F02C813D812230310579F18C8142
:1015C0009D81009709F03FC0ABE3B0E0EBE3F0E0B2
:1015D0008081482F8A81282F30E081E090E0022E20
:1015E00002C0880F991F0A94E2F7809584238C9398
:1015F0003EC0A8E3B0E0E8E3F0E08081482F8A81B4
:10160000282F30E081E090E0022E02C0880F991F61
:101610000A94E2F7809584238C9329C0A5E3B0E077
:10162000E5E3F0E08081482F8A81282F30E081E0D7
:1016300090E0022E02C0880F991F0A94E2F780956D
:1016400084238C9314C0A2E3B0E0E2E3F0E0808155
:10165000482F8A81282F30E081E090E0022E02C0DE
:10166000880F991F0A94E2F7809584238C9327961C
:101670000FB6F894DEBF0FBECDBFCF91DF910895B6
:10168000DF93CF9300D000D0CDB7DEB789836A83D4
:101690008981282F30E03C832B838B819C81813092
:1016A000910571F02B813C812230310571F08B81E5
:1016B0009C81009779F4EBE3F0E08A8180830EC08F
:1016C000E8E3F0E08A81808309C0E5E3F0E08A8105
:1016D000808304C0E2E3F0E08A8180830F900F9062
:1016E0000F900F90CF91DF910895DF93CF9300D0AB
:1016F00000D00F92CDB7DEB789836A838981282F06
:1017000030E03D832C834C815D8141305105E9F00F
:101710008C819D818230910559F12C813D8121156B
:101720003105C9F5E9E3F0E08081282F30E08A81B6
:10173000882F90E0A90102C0559547958A95E2F758
:10174000CA01582F51705B8338C0E6E3F0E0808116
:10175000282F30E08A81882F90E0A90102C055959A
:1017600047958A95E2F7CA01582F51705B8325C0CF
:10177000E3E3F0E08081282F30E08A81882F90E039
:10178000A90102C0559547958A95E2F7CA01582FDD
:1017900051705B8312C0E0E3F0E08081282F30E0DD
:1017A0008A81882F90E0A90102C0559547958A95B6
:1017B000E2F7CA01582F51705B838B810F900F9015
:1017C0000F900F900F90CF91DF910895DF93CF93FB
:1017D00000D000D0CDB7DEB789838981282F30E0D3
:1017E0003C832B838B819C818130910571F02B810F
:1017F0003C812230310571F08B819C81009779F416
:10180000E9E3F0E090819A830EC0E6E3F0E0208106
:101810002A8309C0E3E3F0E030813A8304C0E3E3C4
:10182000F0E080818A838A810F900F900F900F9053
:10183000CF91DF910895DF93CF9300D0CDB7DEB77E
:1018400081E064E040E00E943B0981E065E040E027
:101850000E943B0981E066E040E00E943B0981E094
:1018600067E040E00E943B0983E062E040E00E94C4
:101870003B0983E063E040E00E943B0983E064E0D1
:1018800040E00E943B0981E065E040E00E943B09A6
:101890001A823CC08A81982F9C5F81E0692F41E0C9
:1018A0000E943B098A81982F9C5F81E0692F40E06C
:1018B0000E94580A19821CC08981982F9E5F83E07C
:1018C000692F0E94750B882381F48A81882F90E00C
:1018D000880F991F880F991F982F8981890F8F5F13
:1018E0000F900F90CF91DF91089589818F5F898349
:1018F0008981843008F38A81982F9C5F81E0692F69
:1019000040E00E943B098A818F5F8A838A8184300C
:1019100008F2BECFDF93CF93CDB7DEB76C970FB68B
:10192000F894DEBF0FBECDBF80E061E041E00E94D1
:101930003B0980E062E041E00E943B0980E090E0EA
:10194000A0EAB1E4898F9A8FAB8FBC8F698D7A8DB5
:101950008B8D9C8D20E030E04AE755E40E941F0209
:10196000DC01CB018D8B9E8BAF8BB88F6D897E890F
:101970008F89988D20E030E040E85FE30E942504E5
:1019800088232CF481E090E09C8B8B8B3FC06D8989
:101990007E898F89988D20E03FEF4FE757E40E94C2
:1019A000C50318164CF5698D7A8D8B8D9C8D20E0C2
:1019B00030E040E251E40E941F02DC01CB01BC0197
:1019C000CD010E944900DC01CB019C8B8B8B0FC0A9
:1019D00080E991E09A8B898B89899A890197F1F73F
:1019E0009A8B898B8B899C8901979C8B8B8B8B899C
:1019F0009C89009769F714C06D897E898F89988DBD
:101A00000E944900DC01CB019C8B8B8B8B899C89CC
:101A1000988B8F878F8598890197F1F7988B8F879F
:101A200080E063E041E00E943B0980E064E041E047
:101A30000E943B0980E065E041E00E943B0980E0B4
:101A400066E041E00E943B0980E090E0A0EAB1E45A
:101A50008B879C87AD87BE876B857C858D859E85B2
:101A600020E030E04AE755E40E941F02DC01CB0190
:101A70008F839887A987BA876F81788589859A85AA
:101A800020E030E040E85FE30E94250488232CF446
:101A900081E090E09E838D833FC06F81788589854A
:101AA0009A8520E03FEF4FE757E40E94C5031816E0
:101AB0004CF56B857C858D859E8520E030E040E28D
:101AC00051E40E941F02DC01CB01BC01CD010E9448
:101AD0004900DC01CB019E838D830FC080E991E03A
:101AE0009C838B838B819C810197F1F79C838B83F3
:101AF0008D819E8101979E838D838D819E8100972C
:101B000069F714C06F81788589859A850E9449009C
:101B1000DC01CB019E838D838D819E819A83898395
:101B200089819A810197F1F79A83898383E30E94DF
:101B3000AE0D82E30E94AE0D88E20E94AE0D8CE0F5
:101B40000E94AE0D81E00E94AE0D6C960FB6F89427
:101B5000DEBF0FBECDBFCF91DF9108950F931F93CE
:101B6000DF93CF93CDB7DEB7C559D0400FB6F89409
:101B7000DEBF0FBECDBFFE01EB56FF4F808380E07E
:101B800061E040E00E94580AFE01EF56FF4F80E0FE
:101B900090E0A0E8BFE380839183A283B3838E01AA
:101BA00003571F4FFE01EF56FF4F60817181828105
:101BB00093812BEA3AEA4AEA50E40E941F02DC01D0
:101BC000CB01F80180839183A283B383FE01E357A5
:101BD000FF4F608171818281938120E030E040E895
:101BE0005FE30E942504882334F4FE01E457FF4F8D
:101BF00081E08083E0C0FE01E357FF4F6081718187
:101C00008281938120E030E04FE753E40E94C503D6
:101C100018160CF0C0C0FE01EF56FF4F60817181B5
:101C20008281938120E030E04AE754E40E94190366
:101C3000DC01CB01FE01E857FF4F80839183A28333
:101C4000B3838E010C571F4FFE01E857FF4F608191
:101C500071818281938120E030E04AE755E40E945F
:101C60001F02DC01CB01F80180839183A283B3833F
:101C7000FE01EC57FF4F608171818281938120E0EA
:101C800030E040E85FE30E942504882344F4FE012D
:101C9000EE57FF4F81E090E09183808364C0FE01A6
:101CA000EC57FF4F608171818281938120E03FEF8B
:101CB0004FE757E40E94C50318160CF043C0FE011D
:101CC000E857FF4F608171818281938120E030E08D
:101CD00040E251E40E941F02DC01CB018E010E574D
:101CE0001F4FBC01CD010E944900DC01CB01F8016E
:101CF000918380831FC0FE01E058FF4F80E991E08F
:101D000091838083FE01E058FF4F8081918101978C
:101D1000F1F7FE01E058FF4F91838083DE01AE575B
:101D2000BF4FFE01EE57FF4F8081918101971196C1
:101D30009C938E93FE01EE57FF4F80819181009717
:101D4000D1F64BC08E010E571F4FFE01EC57FF4FCF
:101D500060817181828193810E944900DC01CB0105
:101D6000F80191838083DE01A258BF4FFE01EE5738
:101D7000FF4F8081918111969C938E93FE01E258D2
:101D8000FF4F808191810197F1F7FE01E258FF4FEB
:101D90009183808322C08E0104571F4FFE01E357B9
:101DA000FF4F60817181828193810E944900DC0133
:101DB000CB01F8018083DE01A358BF4FFE01E45739
:101DC000FF4F80818C93FE01E358FF4F80818A95FD
:101DD000F1F7FE01E358FF4F808380E062E041E0CD
:101DE0000E94580AFE01E758FF4F80E090E0A0E80B
:101DF000BFE380839183A283B3838E010B581F4F6F
:101E0000FE01E758FF4F60817181828193812BEA47
:101E10003AEA4AEA50E40E941F02DC01CB01F801D1
:101E200080839183A283B383FE01EB58FF4F6081CF
:101E300071818281938120E030E040E85FE30E947D
:101E40002504882334F4FE01EC58FF4F81E08083A1
:101E5000E0C0FE01EB58FF4F608171818281938168
:101E600020E030E04FE753E40E94C50318160CF061
:101E7000C0C0FE01E758FF4F60817181828193816C
:101E800020E030E04AE754E40E941903DC01CB0172
:101E9000FE01E059FF4F80839183A283B3838E01BB
:101EA00004591F4FFE01E059FF4F6081718182810B
:101EB000938120E030E04AE755E40E941F02DC01F4
:101EC000CB01F80180839183A283B383FE01E4599F
:101ED000FF4F608171818281938120E030E040E892
:101EE0005FE30E942504882344F4FE01E659FF4F76
:101EF00081E090E09183808364C0FE01E459FF4F4C
:101F0000608171818281938120E03FEF4FE757E448
:101F10000E94C50318160CF043C0FE01E059FF4FA4
:101F2000608171818281938120E030E040E251E460
:101F30000E941F02DC01CB018E0106591F4FBC011C
:101F4000CD010E944900DC01CB01F801918380831F
:101F50001FC0FE01E859FF4F80E991E09183808323
:101F6000FE01E859FF4F808191810197F1F7FE0151
:101F7000E859FF4F91838083DE01A659BF4FFE01D0
:101F8000E659FF4F80819181019711969C938E9322
:101F9000FE01E659FF4F808191810097D1F64BC039
:101FA0008E0106591F4FFE01E459FF4F6081718178
:101FB000828193810E944900DC01CB01F801918369
:101FC0008083DE01AA59BF4FFE01E659FF4F808191
:101FD000918111969C938E93FE01EA59FF4F808167
:101FE00091810197F1F7FE01EA59FF4F91838083B8
:101FF00022C08E010C581F4FFE01EB58FF4F60812D
:102000007181828193810E944900DC01CB01F8013A
:102010008083DE01AB59BF4FFE01EC58FF4F80813A
:102020008C93FE01EB59FF4F80818A95F1F7FE01F9
:10203000EB59FF4F8083FE01EB56FF4F8081829565
:102040008F70982F917080E063E0492F0E94580AAA
:10205000FE01EB56FF4F8081829586958770982F01
:10206000917080E064E0492F0E94580AFE01EB560F
:10207000FF4F80818295869586958370982F917009
:1020800080E065E0492F0E94580AFE01EB56FF4FA1
:102090008081982F991F9927991F80E066E0492F2A
:1020A0000E94580AFE01EF59FF4F80E090E0A0E83F
:1020B000BFE380839183A283B3838E01035A1F4FB2
:1020C000FE01EF59FF4F608171818281938120E091
:1020D00030E04AE755E40E941F02DC01CB01F80121
:1020E00080839183A283B383FE01E35AFF4F608113
:1020F00071818281938120E030E040E85FE30E94BB
:102100002504882344F4FE01E55AFF4F81E090E066
:102110009183808364C0FE01E35AFF4F6081718127
:102120008281938120E03FEF4FE757E40E94C5038F
:1021300018160CF043C0FE01EF59FF4F608171810A
:102140008281938120E030E040E251E40E941F024E
:10215000DC01CB018E01055A1F4FBC01CD010E944D
:102160004900DC01CB01F801918380831FC0FE018F
:10217000E75AFF4F80E991E091838083FE01E75A9F
:10218000FF4F808191810197F1F7FE01E75AFF4FE0
:1021900091838083DE01A55ABF4FFE01E55AFF4FB0
:1021A00080819181019711969C938E93FE01E55A4F
:1021B000FF4F808191810097D1F627C08E01055A8B
:1021C0001F4FFE01E35AFF4F60817181828193812D
:1021D0000E944900DC01CB01F80191838083DE017C
:1021E000A95ABF4FFE01E55AFF4F808191818D931F
:1021F0009C93FE01E95AFF4F808191810197F1F78D
:10220000FE01E95AFF4F9183808380E062E040E065
:102210000E94580AFE01ED5AFF4F80E090E0A0E8CE
:10222000BFE380839183A283B3838E01015B1F4F41
:10223000FE01ED5AFF4F60817181828193812BEA0B
:102240003AEA4AEA50E40E941F02DC01CB01F8019D
:1022500080839183A283B383FE01E15BFF4F6081A2
:1022600071818281938120E030E040E85FE30E9449
:102270002504882334F4FE01E25BFF4F81E0808374
:10228000E0C0FE01E15BFF4F60817181828193813B
:1022900020E030E04FE753E40E94C50318160CF02D
:1022A000C0C0FE01ED5AFF4F608171818281938130
:1022B00020E030E04AE754E40E941903DC01CB013E
:1022C000FE01E65BFF4F80839183A283B3838E017F
:1022D0000A5B1F4FFE01E65BFF4F608171818281C7
:1022E000938120E030E04AE755E40E941F02DC01C0
:1022F000CB01F80180839183A283B383FE01EA5B63
:10230000FF4F608171818281938120E030E040E85D
:102310005FE30E942504882344F4FE01EC5BFF4F39
:1023200081E090E09183808364C0FE01EA5BFF4F0F
:10233000608171818281938120E03FEF4FE757E414
:102340000E94C50318160CF043C0FE01E65BFF4F68
:10235000608171818281938120E030E040E251E42C
:102360000E941F02DC01CB018E010C5B1F4FBC01E0
:10237000CD010E944900DC01CB01F80191838083EB
:102380001FC0FE01EE5BFF4F80E991E091838083E7
:10239000FE01EE5BFF4F808191810197F1F7FE0115
:1023A000EE5BFF4F91838083DE01AC5BBF4FFE018C
:1023B000EC5BFF4F80819181019711969C938E93E6
:1023C000FE01EC5BFF4F808191810097D1F642C006
:1023D0008E010C5B1F4FFE01EA5BFF4F6081718134
:1023E000828193810E944900DC01CB01F801918335
:1023F0008083DE01A05CBF4FFE01EC5BFF4F80815C
:10240000918111969C938E93FE01E05CFF4F808139
:1024100091810197F1F7FE01E05CFF4F918380838A
:1024200019C08E01025B1F4FFE01E15BFF4F60810F
:102430007181828193810E944900DC01CB01F80106
:102440008083FE01E25BFF4F80818FAF8FAD8A9565
:10245000F1F78FAF80E062E041E00E94580A80E02F
:1024600090E0A0E8BFE38BAF9CAFADAFBEAF6BAD6C
:102470007CAD8DAD9EAD2BEA3AEA4AEA50E40E946B
:102480001F02DC01CB018FAB98AFA9AFBAAF6FA928
:1024900078AD89AD9AAD20E030E040E85FE30E947E
:1024A000250488231CF481E08EAB91C06FA978AD20
:1024B00089AD9AAD20E030E04FE753E40E94C503B8
:1024C00018160CF07BC06BAD7CAD8DAD9EAD20E0E1
:1024D00030E04AE754E40E941903DC01CB018AABE7
:1024E0009BABACABBDAB6AA97BA98CA99DA920E035
:1024F00030E04AE755E40E941F02DC01CB018EA7C1
:102500009FA7A8ABB9AB6EA57FA588A999A920E024
:1025100030E040E85FE30E94250488232CF481E04A
:1025200090E09DA78CA73FC06EA57FA588A999A91B
:1025300020E03FEF4FE757E40E94C50318164CF523
:102540006AA97BA98CA99DA920E030E040E251E472
:102550000E941F02DC01CB01BC01CD010E94490099
:10256000DC01CB019DA78CA70FC080E991E09BA760
:102570008AA78AA59BA50197F1F79BA78AA78CA597
:102580009DA501979DA78CA78CA59DA5009769F790
:1025900024C06EA57FA588A999A90E944900DC01E5
:1025A000CB019DA78CA78CA59DA599A788A788A5D9
:1025B00099A50197F1F799A788A70FC06FA978ADE2
:1025C00089AD9AAD0E944900DC01CB018EAB8EA98A
:1025D0008FA38FA18A95F1F78FA3FE01EB56FF4FD2
:1025E0008081982F917080E063E0492F0E94580A03
:1025F000FE01EB56FF4F80818695982F917080E009
:1026000064E0492F0E94580AFE01EB56FF4F80817B
:1026100086958695982F917080E065E0492F0E94FD
:10262000580AFE01EB56FF4F808186958695869568
:10263000982F917080E066E0492F0E94580A80E050
:1026400090E0A0E8BFE38BA39CA3ADA3BEA36BA1C6
:102650007CA18DA19EA120E030E04AE755E40E94D4
:102660001F02DC01CB018F8F98A3A9A3BAA36F8DA2
:1026700078A189A19AA120E030E040E85FE30E94C0
:10268000250488232CF481E090E09E8F8D8F3FC03D
:102690006F8D78A189A19AA120E03FEF4FE757E421
:1026A0000E94C50318164CF56BA17CA18DA19EA1BB
:1026B00020E030E040E251E40E941F02DC01CB0147
:1026C000BC01CD010E944900DC01CB019E8F8D8FA2
:1026D0000FC080E991E09C8F8B8F8B8D9C8D019733
:1026E000F1F79C8F8B8F8D8D9E8D01979E8F8D8F97
:1026F0008D8D9E8D009769F714C06F8D78A189A18B
:102700009AA10E944900DC01CB019E8F8D8F8D8D97
:102710009E8D9A8F898F898D9A8D0197F1F79A8F67
:10272000898F80E062E040E00E94580A80E090E0FB
:10273000A0E8BFE38D8B9E8BAF8BB88F6D897E89B0
:102740008F89988D2BEA3AEA4AEA50E40E941F02E8
:10275000DC01CB01898B9A8BAB8BBC8B69897A8925
:102760008B899C8920E030E040E85FE30E942504EB
:1027700088231CF481E0888B91C069897A898B89D0
:102780009C8920E030E04FE753E40E94C50318160F
:102790000CF07BC06D897E898F89988D20E030E0B8
:1027A0004AE754E40E941903DC01CB018C879D8722
:1027B000AE87BF876C857D858E859F8520E030E064
:1027C0004AE755E40E941F02DC01CB018887998704
:1027D000AA87BB87688579858A859B8520E030E05C
:1027E00040E85FE30E94250488232CF481E090E018
:1027F0009F838E833FC0688579858A859B8520E08D
:102800003FEF4FE757E40E94C50318164CF56C855F
:102810007D858E859F8520E030E040E251E40E9476
:102820001F02DC01CB01BC01CD010E944900DC018B
:10283000CB019F838E830FC080E991E09D838C83C1
:102840008C819D810197F1F79D838C838E819F817F
:1028500001979F838E838E819F81009769F724C0A3
:10286000688579858A859B850E944900DC01CB01BA
:102870009F838E838E819F819B838A838A819B81A4
:102880000197F1F79B838A830FC069897A898B89C5
:102890009C890E944900DC01CB01888B888989834F
:1028A00089818A95F1F78983CB56DF4F0FB6F8946B
:1028B000DEBF0FBECDBFCF91DF911F910F91089565
:1028C0000F931F93DF93CF93CDB7DEB7C158D0409E
:1028D0000FB6F894DEBF0FBECDBFFE01EF57FF4F1E
:1028E000808380E061E041E00E94580AFE01E358E5
:1028F000FF4F80E090E0A0E8BFE380839183A28354
:10290000B3838E0107581F4FFE01E358FF4F6081CC
:1029100071818281938120E030E04AE755E40E9492
:102920001F02DC01CB01F80180839183A283B38372
:10293000FE01E758FF4F608171818281938120E021
:1029400030E040E85FE30E942504882344F4FE0160
:10295000E958FF4F81E090E09183808364C0FE01DD
:10296000E758FF4F608171818281938120E03FEFC2
:102970004FE757E40E94C50318160CF043C0FE0150
:10298000E358FF4F608171818281938120E030E0C4
:1029900040E251E40E941F02DC01CB018E01095884
:1029A0001F4FBC01CD010E944900DC01CB01F801A1
:1029B000918380831FC0FE01EB58FF4F80E991E0B7
:1029C00091838083FE01EB58FF4F808191810197B5
:1029D000F1F7FE01EB58FF4F91838083DE01A95888
:1029E000BF4FFE01E958FF4F8081918101971196F9
:1029F0009C938E93FE01E958FF4F8081918100974F
:102A0000D1F627C08E0109581F4FFE01E758FF4F2E
:102A100060817181828193810E944900DC01CB0138
:102A2000F80191838083DE01AD58BF4FFE01E95864
:102A3000FF4F808191818D939C93FE01ED58FF4F54
:102A4000808191810197F1F7FE01ED58FF4F91834D
:102A5000808380E062E041E00E94580AFE01E15973
:102A6000FF4F80E090E0A0E8BFE380839183A283E2
:102A7000B3838E0105591F4FFE01E159FF4F60815D
:102A800071818281938120E030E04AE755E40E9421
:102A90001F02DC01CB01F80180839183A283B38301
:102AA000FE01E559FF4F608171818281938120E0B1
:102AB00030E040E85FE30E942504882344F4FE01EF
:102AC000E759FF4F81E090E09183808364C0FE016D
:102AD000E559FF4F608171818281938120E03FEF52
:102AE0004FE757E40E94C50318160CF043C0FE01DF
:102AF000E159FF4F608171818281938120E030E054
:102B000040E251E40E941F02DC01CB018E01075913
:102B10001F4FBC01CD010E944900DC01CB01F8012F
:102B2000918380831FC0FE01E959FF4F80E991E046
:102B300091838083FE01E959FF4F80819181019744
:102B4000F1F7FE01E959FF4F91838083DE01A75918
:102B5000BF4FFE01E759FF4F808191810197119688
:102B60009C938E93FE01E759FF4F808191810097DE
:102B7000D1F627C08E0107591F4FFE01E559FF4FBF
:102B800060817181828193810E944900DC01CB01C7
:102B9000F80191838083DE01AB59BF4FFE01E759F5
:102BA000FF4F808191818D939C93FE01EB59FF4FE4
:102BB000808191810197F1F7FE01EB59FF4F9183DD
:102BC0008083FE01EF57FF4F808182958F70982F91
:102BD000917080E063E0492F0E94580AFE01EF5790
:102BE000FF4F8081829586958770982F917080E045
:102BF00064E0492F0E94580AFE01EF57FF4F808181
:102C00008295869586958370982F917080E065E017
:102C1000492F0E94580AFE01EF57FF4F8081982FDD
:102C2000991F9927991F80E066E0492F0E94580A52
:102C3000FE01EF59FF4F80E090E0A0E8BFE3808302
:102C40009183A283B3838E01035A1F4FFE01EF5974
:102C5000FF4F608171818281938120E030E04AE7FB
:102C600055E40E941F02DC01CB01F80180839183AF
:102C7000A283B383FE01E35AFF4F60817181828199
:102C8000938120E030E040E85FE30E942504882340
:102C900044F4FE01E55AFF4F81E090E09183808388
:102CA00064C0FE01E35AFF4F60817181828193818C
:102CB00020E03FEF4FE757E40E94C50318160CF0E1
:102CC00043C0FE01EF59FF4F608171818281938182
:102CD00020E030E040E251E40E941F02DC01CB0121
:102CE0008E01055A1F4FBC01CD010E944900DC0135
:102CF000CB01F801918380831FC0FE01E75AFF4F8B
:102D000080E991E091838083FE01E75AFF4F808143
:102D100091810197F1F7FE01E75AFF4F918380837C
:102D2000DE01A55ABF4FFE01E55AFF4F8081918118
:102D3000019711969C938E93FE01E55AFF4F808177
:102D400091810097D1F627C08E01055A1F4FFE01D1
:102D5000E35AFF4F60817181828193810E94490013
:102D6000DC01CB01F80191838083DE01A95ABF4FBA
:102D7000FE01E55AFF4F808191818D939C93FE0166
:102D8000E95AFF4F808191810197F1F7FE01E95ADD
:102D9000FF4F9183808380E062E040E00E94580A08
:102DA000FE01ED5AFF4F80E090E0A0E8BFE3808392
:102DB0009183A283B3838E01015B1F4FFE01ED5A05
:102DC000FF4F60817181828193812BEA3AEA4AEA5E
:102DD00050E40E941F02DC01CB01F8018083918343
:102DE000A283B383FE01E15BFF4F60817181828129
:102DF000938120E030E040E85FE30E9425048823CF
:102E000034F4FE01E25BFF4F81E08083E0C0FE010D
:102E1000E15BFF4F608171818281938120E030E02E
:102E20004FE753E40E94C50318160CF0C0C0FE0122
:102E3000ED5AFF4F608171818281938120E030E003
:102E40004AE754E40E941903DC01CB01FE01E65B72
:102E5000FF4F80839183A283B3838E010A5B1F4F50
:102E6000FE01E65BFF4F608171818281938120E0EA
:102E700030E04AE755E40E941F02DC01CB01F80173
:102E800080839183A283B383FE01EA5BFF4F60815D
:102E900071818281938120E030E040E85FE30E940D
:102EA0002504882344F4FE01EC5BFF4F81E090E0B1
:102EB0009183808364C0FE01EA5BFF4F6081718172
:102EC0008281938120E03FEF4FE757E40E94C503E2
:102ED00018160CF043C0FE01E65BFF4F6081718164
:102EE0008281938120E030E040E251E40E941F02A1
:102EF000DC01CB018E010C5B1F4FBC01CD010E9498
:102F00004900DC01CB01F801918380831FC0FE01E1
:102F1000EE5BFF4F80E991E091838083FE01EE5BE1
:102F2000FF4F808191810197F1F7FE01EE5BFF4F2A
:102F300091838083DE01AC5BBF4FFE01EC5BFF4FF2
:102F400080819181019711969C938E93FE01EC5B99
:102F5000FF4F808191810097D1F642C08E010C5BBA
:102F60001F4FFE01EA5BFF4F608171818281938177
:102F70000E944900DC01CB01F80191838083DE01CE
:102F8000A05CBF4FFE01EC5BFF4F808191811196E9
:102F90009C938E93FE01E05CFF4F808191810197AD
:102FA000F1F7FE01E05CFF4F9183808319C08E0131
:102FB000025B1F4FFE01E15BFF4F608171818281E7
:102FC00093810E944900DC01CB01F8018083FE015E
:102FD000E25BFF4F80818FAF8FAD8A95F1F78FAFA6
:102FE00080E062E041E00E94580A80E090E0A0E8C2
:102FF000BFE38BAF9CAFADAFBEAF6BAD7CAD8DAD66
:103000009EAD2BEA3AEA4AEA50E40E941F02DC0134
:10301000CB018FAB98AFA9AFBAAF6FA978AD89AD2F
:103020009AAD20E030E040E85FE30E942504882369
:103030001CF481E08EAB91C06FA978AD89AD9AADDB
:1030400020E030E04FE753E40E94C50318160CF06F
:103050007BC06BAD7CAD8DAD9EAD20E030E04AE72E
:1030600054E40E941903DC01CB018AAB9BABACABEF
:10307000BDAB6AA97BA98CA99DA920E030E04AE7F5
:1030800055E40E941F02DC01CB018EA79FA7A8ABCD
:10309000B9AB6EA57FA588A999A920E030E040E8EA
:1030A0005FE30E94250488232CF481E090E09DA733
:1030B0008CA73FC06EA57FA588A999A920E03FEF06
:1030C0004FE757E40E94C50318164CF56AA97BA97F
:1030D0008CA99DA920E030E040E251E40E941F024B
:1030E000DC01CB01BC01CD010E944900DC01CB0118
:1030F0009DA78CA70FC080E991E09BA78AA78AA50E
:103100009BA50197F1F79BA78AA78CA59DA5019781
:103110009DA78CA78CA59DA5009769F724C06EA5D7
:103120007FA588A999A90E944900DC01CB019DA730
:103130008CA78CA59DA599A788A788A599A5019777
:10314000F1F799A788A70FC06FA978AD89AD9AAD9F
:103150000E944900DC01CB018EAB8EA98FA38FA109
:103160008A95F1F78FA3FE01EF57FF4F8081982FCB
:10317000917080E063E0492F0E94580AFE01EF57EA
:10318000FF4F80818695982F917080E064E0492FF1
:103190000E94580AFE01EF57FF4F80818695869561
:1031A000982F917080E065E0492F0E94580AFE0137
:1031B000EF57FF4F8081869586958695982F917061
:1031C00080E066E0492F0E94580A80E090E0A0E885
:1031D000BFE38BA39CA3ADA3BEA36BA17CA18DA1D8
:1031E0009EA120E030E04AE755E40E941F02DC0186
:1031F000CB018F8F98A3A9A3BAA36F8D78A189A1C2
:103200009AA120E030E040E85FE30E942504882393
:103210002CF481E090E09E8F8D8F3FC06F8D78A160
:1032200089A19AA120E03FEF4FE757E40E94C50330
:1032300018164CF56BA17CA18DA19EA120E030E079
:1032400040E251E40E941F02DC01CB01BC01CD0130
:103250000E944900DC01CB019E8F8D8F0FC080E959
:1032600091E09C8F8B8F8B8D9C8D0197F1F79C8FBC
:103270008B8F8D8D9E8D01979E8F8D8F8D8D9E8DC9
:10328000009769F714C06F8D78A189A19AA10E9457
:103290004900DC01CB019E8F8D8F8D8D9E8D9A8F85
:1032A000898F898D9A8D0197F1F79A8F898F80E0A8
:1032B00062E040E00E94580A80E090E0A0E8BFE3AE
:1032C0008D8B9E8BAF8BB88F6D897E898F89988D02
:1032D0002BEA3AEA4AEA50E40E941F02DC01CB01E1
:1032E000898B9A8BAB8BBC8B69897A898B899C89FA
:1032F00020E030E040E85FE30E94250488231CF4CE
:1033000081E0888B91C069897A898B899C8920E0CA
:1033100030E04FE753E40E94C50318160CF07BC061
:103320006D897E898F89988D20E030E04AE754E4EA
:103330000E941903DC01CB018C879D87AE87BF8774
:103340006C857D858E859F8520E030E04AE755E4D9
:103350000E941F02DC01CB0188879987AA87BB875F
:10336000688579858A859B8520E030E040E85FE3C9
:103370000E94250488232CF481E090E09F838E83B3
:103380003FC0688579858A859B8520E03FEF4FE7C0
:1033900057E40E94C50318164CF56C857D858E8513
:1033A0009F8520E030E040E251E40E941F02DC01F2
:1033B000CB01BC01CD010E944900DC01CB019F8300
:1033C0008E830FC080E991E09D838C838C819D81E9
:1033D0000197F1F79D838C838E819F8101979F8355
:1033E0008E838E819F81009769F724C068857985D7
:1033F0008A859B850E944900DC01CB019F838E83D7
:103400008E819F819B838A838A819B810197F1F7BB
:103410009B838A830FC069897A898B899C890E94E2
:103420004900DC01CB01888B8889898389818A9551
:10343000F1F78983CF57DF4F0FB6F894DEBF0FBE89
:10344000CDBFCF91DF911F910F910895DF93CF935F
:1034500000D00F92CDB7DEB79B838A8319820EC04E
:103460008981282F30E08A819B81FC01E20FF31FC4
:1034700080810E94601489818F5F89838981282FD0
:1034800030E08A819B81FC01E20FF31F8081882359
:1034900039F70F900F900F90CF91DF910895DF9340
:1034A000CF93CDB7DEB762970FB6F894DEBF0FBEED
:1034B000CDBF9A8B898B89899A899E012F5F3F4F57
:1034C000B9014AE050E00E94171BCE0101960E940C
:1034D000261A62960FB6F894DEBF0FBECDBFCF910D
:1034E000DF910895DF93CF9300D000D00F92CDB736
:1034F000DEB78A836B838A81282F30E03D832C835B
:103500008C819D8181309105C1F02C813D812230DB
:1035100031052CF48C819D81009761F019C02C81BC
:103520003D812230310569F08C819D818330910588
:1035300061F00EC08B8189830BC08B81805C898395
:1035400007C08B81805F898303C08B81805C898306
:10355000898180680E94AE0D0F900F900F900F90A0
:103560000F90CF91DF910895DF93CF9300D000D0DB
:10357000CDB7DEB789836A835C834B8389816A8197
:103580000E94721A8B819C810E94261A0F900F90C4
:103590000F900F90CF91DF910895DF93CF93CDB728
:1035A000DEB781E00E94AE0DCF91DF910895DF93E9
:1035B000CF93CDB7DEB70E944F060E945806FFCFCB
:1035C0002F923F924F925F926F927F928F929F9233
:1035D000AF92BF92CF92DF92EF92FF920F931F9321
:1035E000CF93DF93CDB7DEB7CA1BDB0B0FB6F894D2
:1035F000DEBF0FBECDBF09942A88398848885F8412
:103600006E847D848C849B84AA84B984C884DF8082
:10361000EE80FD800C811B81AA81B981CE0FD11D66
:103620000FB6F894DEBF0FBECDBFED010895FB01CC
:103630009F01E8944230C4F04532B4F44A3029F492
:1036400097FB1EF4909581959F4F642F77270E94DA
:10365000481B805D8A330CF0895D8193CB01009714
:10366000A1F716F45DE251931082C9010C94381B46
:10367000DC01FC01672F71917723E1F7329704C0D9
:103680007C916D9370836291AE17BF07C8F3089564
:10369000AA1BBB1B51E107C0AA1FBB1FA617B70778
:1036A00010F0A61BB70B881F991F5A95A9F7809594
:0C36B0009095BC01CD010895F894FFCF67
:1036BC00413D00423D00433D00443D0077696E6E44
:0E36CC0065723A2000000000000000000000BF
:00000001FF
